:100000000C942A000C94C5000C94EE000C9417017B
:100010000C943C000C943C000C943C000C943C0070
:100020000C943C000C943C000C943C000C943C0060
:100030000C943C000C943C000C943C000C943C0050
:100040000C943C000C943C000C943C000C943C0040
:100050000C943C0011241FBECFE5D8E0DEBFCDBF1D
:1000600020E0A0E6B0E001C01D92A636B207E1F79D
:100070000E9467010C949E010C940000813049F0AD
:1000800018F0823059F00895709365006093640011
:100090000895709363006093620008957093610007
:1000A000609360000895813041F018F0823049F08B
:1000B00008958BB780648BBF08958BB780688BBF22
:1000C00008958BB780628BBF0895813049F120F08D
:1000D000823009F449C00895613069F028F0623037
:1000E00089F06330B1F0089585B78E7F85BF85B7FD
:1000F0008D7F85BF089585B7816085BF85B78D7F6A
:1001000085BF089585B78E7F85BF85B7826085BF1F
:10011000089585B7816085BF85B7826085BF0895E2
:10012000613069F028F0623089F06330B1F00895F1
:1001300085B78B7F85BF85B7877F85BF089585B7D6
:10014000846085BF85B7877F85BF089585B78B7F1E
:1001500085BF85B7886085BF089585B7846085BFF2
:1001600085B7886085BF0895623019F0633029F043
:1001700008C084B78F7B84BF089584B7806484BF30
:10018000089584B78F7B84BF08951F920F920FB696
:100190000F9211242F933F934F935F936F937F930D
:1001A0008F939F93AF93BF93EF93FF93E09164007E
:1001B000F0916500309709F00995FF91EF91BF919B
:1001C000AF919F918F917F916F915F914F913F91EF
:1001D0002F910F900FBE0F901F9018951F920F92A6
:1001E0000FB60F9211242F933F934F935F936F930A
:1001F0007F938F939F93AF93BF93EF93FF93E09180
:100200006200F0916300309709F00995FF91EF913A
:10021000BF91AF919F918F917F916F915F914F911E
:100220003F912F910F900FBE0F901F9018951F9226
:100230000F920FB60F9211242F933F934F935F931A
:100240006F937F938F939F93AF93BF93EF93FF939E
:10025000E0916000F0916100309709F00995FF91FD
:10026000EF91BF91AF919F918F917F916F915F912E
:100270004F913F912F910F900FBE0F901F901895A7
:1002800082B3806282BB2FEF89E698E121508040E3
:100290009040E1F700C00000089582B3806482BB03
:1002A0002FEF89E698E1215080409040E1F700C0AF
:1002B0000000089582B3806882BB2FEF89E698E141
:1002C000215080409040E1F700C00000089580EE8A
:1002D00081BB17BA12BAF89461E080E00E94650011
:1002E00063E081E00E94650062E082E00E946500B8
:1002F00080E00E94530081E00E94530082E00E944F
:100300005300789460E471E080E00E943E006DE468
:1003100071E081E00E943E006AE571E082E00E94A7
:100320003E0082B38F7182BB2FEF89E698E12150A6
:1003300080409040E1F700C00000F3CFF894FFCF79
:00000001FF
